{
  "transactions": [
    {
      "hash": "0x15b6dac15ef8f923667635cebb2d137a195a31d7a6484ffb890f0d3af4ee72d9",
      "transactionType": "CALL",
      "contractName": null,
      "contractAddress": "0xf2673a325bf125469acdf5a869327e340c78c1a2",
      "function": "upgradeAndCall(address,address,bytes)",
      "arguments": [
        "0x0ec8F51391b3976B406ec182c8c22e537Ff14ECa",
        "0xd441929a278a01303547e643F4798d9Bb5b4FCf8",
        "0xe7bc4f2b080fa7727ac2b73292de264684f469732687b61977ae5e95d79727a2e8dd7c54000000000000000000000000000000000000000000000000000000000000003c0000000000000000000000000000000000000000000000000000000000000050000000000000000000000000000000000000000001cf389cd46047d030000000000000000000000000000000000000000000000001cf389cd46047d030000000000000000000000000000000000000000000000000000000000000000000003d00000000000000000000000000000000000000000000000000000000000000640000000000000000000000000000000000000000000000000000000000000001000000000000000000000000000000000000000000084595161401484a0000000000000000000000000000007906466991143f662fac3b06d5e3846e4c6cc8931fbae9f07fdccb931e9de419b15690728296f4743f77588082b3e4425d6de54a000000000000000000000000dc3b0e30d1d079159b616b2bf618d17167ebd5fb000000000000000000000000b4f69b081e784d50ff0a1ec1d46570abac7a221d"
      ],
      "transaction": {
        "from": "0xb4f69b081e784d50ff0a1ec1d46570abac7a221d",
        "to": "0xf2673a325bf125469acdf5a869327e340c78c1a2",
        "gas": "0x1d0cf",
        "value": "0x0",
        "input": "0x9623609d0000000000000000000000000ec8f51391b3976b406ec182c8c22e537ff14eca000000000000000000000000d441929a278a01303547e643f4798d9bb5b4fcf8000000000000000000000000000000000000000000000000000000000000006000000000000000000000000000000000000000000000000000000000000001a4e7bc4f2b080fa7727ac2b73292de264684f469732687b61977ae5e95d79727a2e8dd7c54000000000000000000000000000000000000000000000000000000000000003c0000000000000000000000000000000000000000000000000000000000000050000000000000000000000000000000000000000001cf389cd46047d030000000000000000000000000000000000000000000000001cf389cd46047d030000000000000000000000000000000000000000000000000000000000000000000003d00000000000000000000000000000000000000000000000000000000000000640000000000000000000000000000000000000000000000000000000000000001000000000000000000000000000000000000000000084595161401484a0000000000000000000000000000007906466991143f662fac3b06d5e3846e4c6cc8931fbae9f07fdccb931e9de419b15690728296f4743f77588082b3e4425d6de54a000000000000000000000000dc3b0e30d1d079159b616b2bf618d17167ebd5fb000000000000000000000000b4f69b081e784d50ff0a1ec1d46570abac7a221d00000000000000000000000000000000000000000000000000000000",
        "nonce": "0x85",
        "chainId": "0xa869"
      },
      "additionalContracts": [],
      "isFixedGasLimit": false
    }
  ],
  "receipts": [
    {
      "status": "0x1",
      "cumulativeGasUsed": "0x13dd2",
      "logs": [
        {
          "address": "0x0ec8f51391b3976b406ec182c8c22e537ff14eca",
          "topics": [
            "0xbc7cd75a20ee27fd9adebab32041f755214dbc6bffa90cc0225b39da2e5c2d3b",
            "0x000000000000000000000000d441929a278a01303547e643f4798d9bb5b4fcf8"
          ],
          "data": "0x",
          "blockHash": "0x68f8a19f6179a5e5b01758b3ea63520e6cd068f36abc32d2199780cde5bdd736",
          "blockNumber": "0x242e049",
          "transactionHash": "0x15b6dac15ef8f923667635cebb2d137a195a31d7a6484ffb890f0d3af4ee72d9",
          "transactionIndex": "0x0",
          "logIndex": "0x0",
          "removed": false
        },
        {
          "address": "0x0ec8f51391b3976b406ec182c8c22e537ff14eca",
          "topics": [
            "0xc7f505b2f371ae2175ee4913f4499e1f2633a7b5936321eed1cdaeb6115181d2"
          ],
          "data": "0x0000000000000000000000000000000000000000000000000000000000000009",
          "blockHash": "0x68f8a19f6179a5e5b01758b3ea63520e6cd068f36abc32d2199780cde5bdd736",
          "blockNumber": "0x242e049",
          "transactionHash": "0x15b6dac15ef8f923667635cebb2d137a195a31d7a6484ffb890f0d3af4ee72d9",
          "transactionIndex": "0x0",
          "logIndex": "0x1",
          "removed": false
        }
      ],
      "logsBloom": "0x00000000000000000000000000000000400000000000040000400000000000000000000000002000000000000000000000000000000000000000000000000000004000000000000000000002000002000000000000000000000000000000000000000000000000000000000000000000000000000000000000000000000000000000000000000000000800000000000004000000000080000000000000000000000000000000000000000000000000000000000000000000000000000000000000000020000000000000000000000000000000000004000000000000000000000000000000000000000000000000000000000000000000000000000000000000",
      "type": "0x2",
      "transactionHash": "0x15b6dac15ef8f923667635cebb2d137a195a31d7a6484ffb890f0d3af4ee72d9",
      "transactionIndex": "0x0",
      "blockHash": "0x68f8a19f6179a5e5b01758b3ea63520e6cd068f36abc32d2199780cde5bdd736",
      "blockNumber": "0x242e049",
      "gasUsed": "0x13dd2",
      "effectiveGasPrice": "0x5230708a0",
      "from": "0xb4f69b081e784d50ff0a1ec1d46570abac7a221d",
      "to": "0xf2673a325bf125469acdf5a869327e340c78c1a2",
      "contractAddress": null
    }
  ],
  "libraries": [],
  "pending": [],
  "returns": {},
  "timestamp": 1738885262,
  "chain": 43113,
  "commit": "30ca3a04"
}