{
  "transactions": [
    {
      "hash": "0xe7957c6e75a3e5749c760d66ae699e269d17e4ad26b759613db406cdeef17c8c",
      "transactionType": "CALL",
      "contractName": null,
      "contractAddress": "0xf2673a325bf125469acdf5a869327e340c78c1a2",
      "function": "upgradeAndCall(address,address,bytes)",
      "arguments": [
        "0x0ec8F51391b3976B406ec182c8c22e537Ff14ECa",
        "0xd9E3D21f5798F9d400DD03F4C7Dc3554Df49d3C1",
        "0xe7bc4f2b080fa7727ac2b73292de264684f469732687b61977ae5e95d79727a2e8dd7c54000000000000000000000000000000000000000000000000000000000000003c0000000000000000000000000000000000000000000000000000000000000050000000000000000000000000000000000000000001cf389cd46047d030000000000000000000000000000000000000000000000001cf389cd46047d030000000000000000000000000000000000000000000000000000000000000000000003d00000000000000000000000000000000000000000000000000000000000000640000000000000000000000000000000000000000000000000000000000000001000000000000000000000000000000000000000000084595161401484a0000000000000000000000000000007906466991143f662fac3b06d5e3846e4c6cc8931fbae9f07fdccb931e9de419b15690728296f4743f77588082b3e4425d6de54a000000000000000000000000dc3b0e30d1d079159b616b2bf618d17167ebd5fb000000000000000000000000b4f69b081e784d50ff0a1ec1d46570abac7a221d"
      ],
      "transaction": {
        "from": "0xb4f69b081e784d50ff0a1ec1d46570abac7a221d",
        "to": "0xf2673a325bf125469acdf5a869327e340c78c1a2",
        "gas": "0x24f0b",
        "value": "0x0",
        "input": "0x9623609d0000000000000000000000000ec8f51391b3976b406ec182c8c22e537ff14eca000000000000000000000000d9e3d21f5798f9d400dd03f4c7dc3554df49d3c1000000000000000000000000000000000000000000000000000000000000006000000000000000000000000000000000000000000000000000000000000001a4e7bc4f2b080fa7727ac2b73292de264684f469732687b61977ae5e95d79727a2e8dd7c54000000000000000000000000000000000000000000000000000000000000003c0000000000000000000000000000000000000000000000000000000000000050000000000000000000000000000000000000000001cf389cd46047d030000000000000000000000000000000000000000000000001cf389cd46047d030000000000000000000000000000000000000000000000000000000000000000000003d00000000000000000000000000000000000000000000000000000000000000640000000000000000000000000000000000000000000000000000000000000001000000000000000000000000000000000000000000084595161401484a0000000000000000000000000000007906466991143f662fac3b06d5e3846e4c6cc8931fbae9f07fdccb931e9de419b15690728296f4743f77588082b3e4425d6de54a000000000000000000000000dc3b0e30d1d079159b616b2bf618d17167ebd5fb000000000000000000000000b4f69b081e784d50ff0a1ec1d46570abac7a221d00000000000000000000000000000000000000000000000000000000",
        "nonce": "0x60",
        "chainId": "0xa869"
      },
      "additionalContracts": [],
      "isFixedGasLimit": false
    }
  ],
  "receipts": [
    {
      "status": "0x1",
      "cumulativeGasUsed": "0x19422",
      "logs": [
        {
          "address": "0x0ec8f51391b3976b406ec182c8c22e537ff14eca",
          "topics": [
            "0xbc7cd75a20ee27fd9adebab32041f755214dbc6bffa90cc0225b39da2e5c2d3b",
            "0x000000000000000000000000d9e3d21f5798f9d400dd03f4c7dc3554df49d3c1"
          ],
          "data": "0x",
          "blockHash": "0xa7ac52b4944622c3d7256f473ef683d9f79f48660b06304fcfd39afe17f0c803",
          "blockNumber": "0x24299db",
          "transactionHash": "0xe7957c6e75a3e5749c760d66ae699e269d17e4ad26b759613db406cdeef17c8c",
          "transactionIndex": "0x0",
          "logIndex": "0x0",
          "removed": false
        },
        {
          "address": "0x0ec8f51391b3976b406ec182c8c22e537ff14eca",
          "topics": [
            "0x2f8788117e7eff1d82e926ec794901d17c78024a50270940304540a733656f0d",
            "0x0000000000000000000000000000000000000000000000000000000000000000",
            "0x000000000000000000000000b4f69b081e784d50ff0a1ec1d46570abac7a221d",
            "0x000000000000000000000000f2673a325bf125469acdf5a869327e340c78c1a2"
          ],
          "data": "0x",
          "blockHash": "0xa7ac52b4944622c3d7256f473ef683d9f79f48660b06304fcfd39afe17f0c803",
          "blockNumber": "0x24299db",
          "transactionHash": "0xe7957c6e75a3e5749c760d66ae699e269d17e4ad26b759613db406cdeef17c8c",
          "transactionIndex": "0x0",
          "logIndex": "0x1",
          "removed": false
        },
        {
          "address": "0x0ec8f51391b3976b406ec182c8c22e537ff14eca",
          "topics": [
            "0xc7f505b2f371ae2175ee4913f4499e1f2633a7b5936321eed1cdaeb6115181d2"
          ],
          "data": "0x0000000000000000000000000000000000000000000000000000000000000008",
          "blockHash": "0xa7ac52b4944622c3d7256f473ef683d9f79f48660b06304fcfd39afe17f0c803",
          "blockNumber": "0x24299db",
          "transactionHash": "0xe7957c6e75a3e5749c760d66ae699e269d17e4ad26b759613db406cdeef17c8c",
          "transactionIndex": "0x0",
          "logIndex": "0x2",
          "removed": false
        }
      ],
      "logsBloom": "0x00000004000000000000000000000000400000000000040000000000000000000000000000002000000000000000000000200000000000000002000008000000000000000000000000000000000002000000000000000000000400000000000000000000020000000000000000000800000000080000000000000000000000000000000000000000000800000000000004000000000080000000000000000000800000000000000000000000000000000000000000000000001000000000000000000020000000000000000000002000000000000004000100000000000020000000000000000000000000000000000000000000000000002000000000000000",
      "type": "0x2",
      "transactionHash": "0xe7957c6e75a3e5749c760d66ae699e269d17e4ad26b759613db406cdeef17c8c",
      "transactionIndex": "0x0",
      "blockHash": "0xa7ac52b4944622c3d7256f473ef683d9f79f48660b06304fcfd39afe17f0c803",
      "blockNumber": "0x24299db",
      "gasUsed": "0x19422",
      "effectiveGasPrice": "0x47868c01",
      "from": "0xb4f69b081e784d50ff0a1ec1d46570abac7a221d",
      "to": "0xf2673a325bf125469acdf5a869327e340c78c1a2",
      "contractAddress": null
    }
  ],
  "libraries": [],
  "pending": [],
  "returns": {},
  "timestamp": 1738772983,
  "chain": 43113,
  "commit": "a497fe40"
}